{
  "contractName": "ERupee",
  "abi": [
    {
      "inputs": [
        {
          "internalType": "uint256",
          "name": "initialSupply",
          "type": "uint256"
        }
      ],
      "stateMutability": "nonpayable",
      "type": "constructor"
    },
    {
      "anonymous": false,
      "inputs": [
        {
          "indexed": true,
          "internalType": "address",
          "name": "user",
          "type": "address"
        },
        {
          "indexed": false,
          "internalType": "uint256",
          "name": "amount",
          "type": "uint256"
        }
      ],
      "name": "Cashback",
      "type": "event"
    },
    {
      "anonymous": false,
      "inputs": [
        {
          "indexed": true,
          "internalType": "address",
          "name": "from",
          "type": "address"
        },
        {
          "indexed": true,
          "internalType": "address",
          "name": "to",
          "type": "address"
        },
        {
          "indexed": false,
          "internalType": "uint256",
          "name": "value",
          "type": "uint256"
        }
      ],
      "name": "Transfer",
      "type": "event"
    },
    {
      "inputs": [
        {
          "internalType": "address",
          "name": "",
          "type": "address"
        }
      ],
      "name": "balanceOf",
      "outputs": [
        {
          "internalType": "uint256",
          "name": "",
          "type": "uint256"
        }
      ],
      "stateMutability": "view",
      "type": "function"
    },
    {
      "inputs": [],
      "name": "decimals",
      "outputs": [
        {
          "internalType": "uint8",
          "name": "",
          "type": "uint8"
        }
      ],
      "stateMutability": "view",
      "type": "function"
    },
    {
      "inputs": [],
      "name": "name",
      "outputs": [
        {
          "internalType": "string",
          "name": "",
          "type": "string"
        }
      ],
      "stateMutability": "view",
      "type": "function"
    },
    {
      "inputs": [],
      "name": "rbi",
      "outputs": [
        {
          "internalType": "address",
          "name": "",
          "type": "address"
        }
      ],
      "stateMutability": "view",
      "type": "function"
    },
    {
      "inputs": [],
      "name": "symbol",
      "outputs": [
        {
          "internalType": "string",
          "name": "",
          "type": "string"
        }
      ],
      "stateMutability": "view",
      "type": "function"
    },
    {
      "inputs": [],
      "name": "totalSupply",
      "outputs": [
        {
          "internalType": "uint256",
          "name": "",
          "type": "uint256"
        }
      ],
      "stateMutability": "view",
      "type": "function"
    },
    {
      "inputs": [
        {
          "internalType": "address",
          "name": "",
          "type": "address"
        }
      ],
      "name": "transactionCount",
      "outputs": [
        {
          "internalType": "uint256",
          "name": "",
          "type": "uint256"
        }
      ],
      "stateMutability": "view",
      "type": "function"
    },
    {
      "inputs": [
        {
          "internalType": "address",
          "name": "to",
          "type": "address"
        },
        {
          "internalType": "uint256",
          "name": "value",
          "type": "uint256"
        }
      ],
      "name": "transfer",
      "outputs": [
        {
          "internalType": "bool",
          "name": "",
          "type": "bool"
        }
      ],
      "stateMutability": "nonpayable",
      "type": "function"
    },
    {
      "inputs": [
        {
          "internalType": "address",
          "name": "to",
          "type": "address"
        },
        {
          "internalType": "uint256",
          "name": "value",
          "type": "uint256"
        }
      ],
      "name": "mint",
      "outputs": [],
      "stateMutability": "nonpayable",
      "type": "function"
    },
    {
      "inputs": [
        {
          "internalType": "address",
          "name": "account",
          "type": "address"
        }
      ],
      "name": "getBalance",
      "outputs": [
        {
          "internalType": "uint256",
          "name": "",
          "type": "uint256"
        }
      ],
      "stateMutability": "view",
      "type": "function"
    }
  ],
  "bytecode": "0x60806040526040518060400160405280600781526020017f652d5275706565000000000000000000000000000000000000000000000000008152505f90816200004991906200041d565b506040518060400160405280600481526020017f65494e5200000000000000000000000000000000000000000000000000000000815250600190816200009091906200041d565b506002805f6101000a81548160ff021916908360ff160217905550348015620000b7575f80fd5b5060405162001581380380620015818339818101604052810190620000dd919062000534565b3360045f6101000a81548173ffffffffffffffffffffffffffffffffffffffff021916908373ffffffffffffffffffffffffffffffffffffffff16021790555060025f9054906101000a900460ff16600a6200013a9190620006ed565b816200014791906200073d565b60038190555060035460055f60045f9054906101000a900473ffffffffffffffffffffffffffffffffffffffff1673ffffffffffffffffffffffffffffffffffffffff1673ffffffffffffffffffffffffffffffffffffffff1681526020019081526020015f20819055505062000787565b5f81519050919050565b7f4e487b71000000000000000000000000000000000000000000000000000000005f52604160045260245ffd5b7f4e487b71000000000000000000000000000000000000000000000000000000005f52602260045260245ffd5b5f60028204905060018216806200023557607f821691505b6020821081036200024b576200024a620001f0565b5b50919050565b5f819050815f5260205f209050919050565b5f6020601f8301049050919050565b5f82821b905092915050565b5f60088302620002af7fffffffffffffffffffffffffffffffffffffffffffffffffffffffffffffffff8262000272565b620002bb868362000272565b95508019841693508086168417925050509392505050565b5f819050919050565b5f819050919050565b5f62000305620002ff620002f984620002d3565b620002dc565b620002d3565b9050919050565b5f819050919050565b6200032083620002e5565b620003386200032f826200030c565b8484546200027e565b825550505050565b5f90565b6200034e62000340565b6200035b81848462000315565b505050565b5b818110156200038257620003765f8262000344565b60018101905062000361565b5050565b601f821115620003d1576200039b8162000251565b620003a68462000263565b81016020851015620003b6578190505b620003ce620003c58562000263565b83018262000360565b50505b505050565b5f82821c905092915050565b5f620003f35f1984600802620003d6565b1980831691505092915050565b5f6200040d8383620003e2565b9150826002028217905092915050565b6200042882620001b9565b67ffffffffffffffff811115620004445762000443620001c3565b5b6200045082546200021d565b6200045d82828562000386565b5f60209050601f83116001811462000493575f84156200047e578287015190505b6200048a858262000400565b865550620004f9565b601f198416620004a38662000251565b5f5b82811015620004cc57848901518255600182019150602085019450602081019050620004a5565b86831015620004ec5784890151620004e8601f891682620003e2565b8355505b6001600288020188555050505b505050505050565b5f80fd5b6200051081620002d3565b81146200051b575f80fd5b50565b5f815190506200052e8162000505565b92915050565b5f602082840312156200054c576200054b62000501565b5b5f6200055b848285016200051e565b91505092915050565b7f4e487b71000000000000000000000000000000000000000000000000000000005f52601160045260245ffd5b5f8160011c9050919050565b5f808291508390505b6001851115620005ee57808604811115620005c657620005c562000564565b5b6001851615620005d65780820291505b8081029050620005e68562000591565b9450620005a6565b94509492505050565b5f82620006085760019050620006da565b8162000617575f9050620006da565b81600181146200063057600281146200063b5762000671565b6001915050620006da565b60ff84111562000650576200064f62000564565b5b8360020a9150848211156200066a576200066962000564565b5b50620006da565b5060208310610133831016604e8410600b8410161715620006ab5782820a905083811115620006a557620006a462000564565b5b620006da565b620006ba84848460016200059d565b92509050818404811115620006d457620006d362000564565b5b81810290505b9392505050565b5f60ff82169050919050565b5f620006f982620002d3565b91506200070683620006e1565b9250620007357fffffffffffffffffffffffffffffffffffffffffffffffffffffffffffffffff8484620005f7565b905092915050565b5f6200074982620002d3565b91506200075683620002d3565b92508282026200076681620002d3565b9150828204841483151762000780576200077f62000564565b5b5092915050565b610dec80620007955f395ff3fe608060405234801561000f575f80fd5b506004361061009c575f3560e01c806370a082311161006457806370a082311461013457806395d89b411461016457806399be337514610182578063a9059cbb146101b2578063f8b2cb4f146101e25761009c565b806306fdde03146100a057806318160ddd146100be578063313ce567146100dc57806340c10f19146100fa5780636ea37eb314610116575b5f80fd5b6100a8610212565b6040516100b5919061091f565b60405180910390f35b6100c661029d565b6040516100d39190610957565b60405180910390f35b6100e46102a3565b6040516100f1919061098b565b60405180910390f35b610114600480360381019061010f9190610a2c565b6102b5565b005b61011e610418565b60405161012b9190610a79565b60405180910390f35b61014e60048036038101906101499190610a92565b61043d565b60405161015b9190610957565b60405180910390f35b61016c610452565b604051610179919061091f565b60405180910390f35b61019c60048036038101906101979190610a92565b6104de565b6040516101a99190610957565b60405180910390f35b6101cc60048036038101906101c79190610a2c565b6104f3565b6040516101d99190610ad7565b60405180910390f35b6101fc60048036038101906101f79190610a92565b61084f565b6040516102099190610957565b60405180910390f35b5f805461021e90610b1d565b80601f016020809104026020016040519081016040528092919081815260200182805461024a90610b1d565b80156102955780601f1061026c57610100808354040283529160200191610295565b820191905f5260205f20905b81548152906001019060200180831161027857829003601f168201915b505050505081565b60035481565b60025f9054906101000a900460ff1681565b60045f9054906101000a900473ffffffffffffffffffffffffffffffffffffffff1673ffffffffffffffffffffffffffffffffffffffff163373ffffffffffffffffffffffffffffffffffffffff1614610344576040517f08c379a000000000000000000000000000000000000000000000000000000000815260040161033b90610b97565b60405180910390fd5b8060055f8473ffffffffffffffffffffffffffffffffffffffff1673ffffffffffffffffffffffffffffffffffffffff1681526020019081526020015f205f8282546103909190610be2565b925050819055508060035f8282546103a89190610be2565b925050819055508173ffffffffffffffffffffffffffffffffffffffff165f73ffffffffffffffffffffffffffffffffffffffff167fddf252ad1be2c89b69c2b068fc378daa952ba7f163c4a11628f55a4df523b3ef8360405161040c9190610957565b60405180910390a35050565b60045f9054906101000a900473ffffffffffffffffffffffffffffffffffffffff1681565b6005602052805f5260405f205f915090505481565b6001805461045f90610b1d565b80601f016020809104026020016040519081016040528092919081815260200182805461048b90610b1d565b80156104d65780601f106104ad576101008083540402835291602001916104d6565b820191905f5260205f20905b8154815290600101906020018083116104b957829003601f168201915b505050505081565b6006602052805f5260405f205f915090505481565b5f8073ffffffffffffffffffffffffffffffffffffffff168373ffffffffffffffffffffffffffffffffffffffff1603610562576040517f08c379a000000000000000000000000000000000000000000000000000000000815260040161055990610c5f565b60405180910390fd5b8160055f3373ffffffffffffffffffffffffffffffffffffffff1673ffffffffffffffffffffffffffffffffffffffff1681526020019081526020015f205410156105e2576040517f08c379a00000000000000000000000000000000000000000000000000000000081526004016105d990610cc7565b60405180910390fd5b8160055f3373ffffffffffffffffffffffffffffffffffffffff1673ffffffffffffffffffffffffffffffffffffffff1681526020019081526020015f205f82825461062e9190610ce5565b925050819055508160055f8573ffffffffffffffffffffffffffffffffffffffff1673ffffffffffffffffffffffffffffffffffffffff1681526020019081526020015f205f8282546106819190610be2565b92505081905550600160065f3373ffffffffffffffffffffffffffffffffffffffff1673ffffffffffffffffffffffffffffffffffffffff1681526020019081526020015f205f8282546106d59190610be2565b92505081905550600a60065f3373ffffffffffffffffffffffffffffffffffffffff1673ffffffffffffffffffffffffffffffffffffffff1681526020019081526020015f2054116107e0575f60646002846107319190610d18565b61073b9190610d86565b90508060055f3373ffffffffffffffffffffffffffffffffffffffff1673ffffffffffffffffffffffffffffffffffffffff1681526020019081526020015f205f8282546107899190610be2565b925050819055503373ffffffffffffffffffffffffffffffffffffffff167fe523757eee9c213543af9b06c96e0629da383d3149173f4a03ab96d8ff526760826040516107d69190610957565b60405180910390a2505b8273ffffffffffffffffffffffffffffffffffffffff163373ffffffffffffffffffffffffffffffffffffffff167fddf252ad1be2c89b69c2b068fc378daa952ba7f163c4a11628f55a4df523b3ef8460405161083d9190610957565b60405180910390a36001905092915050565b5f60055f8373ffffffffffffffffffffffffffffffffffffffff1673ffffffffffffffffffffffffffffffffffffffff1681526020019081526020015f20549050919050565b5f81519050919050565b5f82825260208201905092915050565b5f5b838110156108cc5780820151818401526020810190506108b1565b5f8484015250505050565b5f601f19601f8301169050919050565b5f6108f182610895565b6108fb818561089f565b935061090b8185602086016108af565b610914816108d7565b840191505092915050565b5f6020820190508181035f83015261093781846108e7565b905092915050565b5f819050919050565b6109518161093f565b82525050565b5f60208201905061096a5f830184610948565b92915050565b5f60ff82169050919050565b61098581610970565b82525050565b5f60208201905061099e5f83018461097c565b92915050565b5f80fd5b5f73ffffffffffffffffffffffffffffffffffffffff82169050919050565b5f6109d1826109a8565b9050919050565b6109e1816109c7565b81146109eb575f80fd5b50565b5f813590506109fc816109d8565b92915050565b610a0b8161093f565b8114610a15575f80fd5b50565b5f81359050610a2681610a02565b92915050565b5f8060408385031215610a4257610a416109a4565b5b5f610a4f858286016109ee565b9250506020610a6085828601610a18565b9150509250929050565b610a73816109c7565b82525050565b5f602082019050610a8c5f830184610a6a565b92915050565b5f60208284031215610aa757610aa66109a4565b5b5f610ab4848285016109ee565b91505092915050565b5f8115159050919050565b610ad181610abd565b82525050565b5f602082019050610aea5f830184610ac8565b92915050565b7f4e487b71000000000000000000000000000000000000000000000000000000005f52602260045260245ffd5b5f6002820490506001821680610b3457607f821691505b602082108103610b4757610b46610af0565b5b50919050565b7f4f6e6c79205242492063616e2063616c6c2074686973000000000000000000005f82015250565b5f610b8160168361089f565b9150610b8c82610b4d565b602082019050919050565b5f6020820190508181035f830152610bae81610b75565b9050919050565b7f4e487b71000000000000000000000000000000000000000000000000000000005f52601160045260245ffd5b5f610bec8261093f565b9150610bf78361093f565b9250828201905080821115610c0f57610c0e610bb5565b5b92915050565b7f496e76616c6964206164647265737300000000000000000000000000000000005f82015250565b5f610c49600f8361089f565b9150610c5482610c15565b602082019050919050565b5f6020820190508181035f830152610c7681610c3d565b9050919050565b7f496e73756666696369656e742062616c616e63650000000000000000000000005f82015250565b5f610cb160148361089f565b9150610cbc82610c7d565b602082019050919050565b5f6020820190508181035f830152610cde81610ca5565b9050919050565b5f610cef8261093f565b9150610cfa8361093f565b9250828203905081811115610d1257610d11610bb5565b5b92915050565b5f610d228261093f565b9150610d2d8361093f565b9250828202610d3b8161093f565b91508282048414831517610d5257610d51610bb5565b5b5092915050565b7f4e487b71000000000000000000000000000000000000000000000000000000005f52601260045260245ffd5b5f610d908261093f565b9150610d9b8361093f565b925082610dab57610daa610d59565b5b82820490509291505056fea26469706673582212200a0ea04197886d40ba9f3754f6162b34e4df25e317f01895b94ea4490654ef0f64736f6c63430008150033",
  "immutableReferences": {},
  "source": "// SPDX-License-Identifier: MIT\r\npragma solidity ^0.8.0;\r\n\r\ncontract ERupee {\r\n    string public name = \"e-Rupee\";\r\n    string public symbol = \"eINR\";\r\n    uint8 public decimals = 2; // 2 decimal places like INR\r\n    uint256 public totalSupply;\r\n    address public rbi; // Simulated RBI admin\r\n    mapping(address => uint256) public balanceOf;\r\n    mapping(address => uint256) public transactionCount; // Track tx for cashback\r\n\r\n    event Transfer(address indexed from, address indexed to, uint256 value);\r\n    event Cashback(address indexed user, uint256 amount);\r\n\r\n    constructor(uint256 initialSupply) {\r\n        rbi = msg.sender;\r\n        totalSupply = initialSupply * 10 ** decimals; // Convert to smallest unit\r\n        balanceOf[rbi] = totalSupply;\r\n    }\r\n\r\n    modifier onlyRBI() {\r\n        require(msg.sender == rbi, \"Only RBI can call this\");\r\n        _;\r\n    }\r\n\r\n    function transfer(address to, uint256 value) public returns (bool) {\r\n        require(to != address(0), \"Invalid address\");\r\n        require(balanceOf[msg.sender] >= value, \"Insufficient balance\");\r\n\r\n        balanceOf[msg.sender] -= value;\r\n        balanceOf[to] += value;\r\n        transactionCount[msg.sender] += 1;\r\n\r\n        // Cashback: 2% for first 10 transactions (simplified for demo)\r\n        if (transactionCount[msg.sender] <= 10) {\r\n            uint256 cashback = (value * 2) / 100;\r\n            balanceOf[msg.sender] += cashback;\r\n            emit Cashback(msg.sender, cashback);\r\n        }\r\n\r\n        emit Transfer(msg.sender, to, value);\r\n        return true;\r\n    }\r\n\r\n    function mint(address to, uint256 value) public onlyRBI {\r\n        balanceOf[to] += value;\r\n        totalSupply += value;\r\n        emit Transfer(address(0), to, value);\r\n    }\r\n\r\n    function getBalance(address account) public view returns (uint256) {\r\n        return balanceOf[account];\r\n    }\r\n}",
  "sourcePath": "D:\\e-rupee\\contracts\\ERupee.sol",
  "compiler": {
    "name": "solc",
    "version": "0.8.21+commit.d9974bed.Emscripten.clang"
  },
  "schemaVersion": "3.4.16",
  "updatedAt": "2025-03-22T19:12:04.020Z",
  "devdoc": {
    "kind": "dev",
    "methods": {},
    "version": 1
  },
  "userdoc": {
    "kind": "user",
    "methods": {},
    "version": 1
  }
}